{
  "contractName": "LandRegistrySystem",
  "abi": [
    {
      "inputs": [],
      "stateMutability": "nonpayable",
      "type": "constructor"
    },
    {
      "anonymous": false,
      "inputs": [
        {
          "indexed": true,
          "internalType": "uint256",
          "name": "landId",
          "type": "uint256"
        },
        {
          "indexed": false,
          "internalType": "address",
          "name": "newOwner",
          "type": "address"
        }
      ],
      "name": "LandCreated",
      "type": "event"
    },
    {
      "anonymous": false,
      "inputs": [
        {
          "indexed": true,
          "internalType": "uint256",
          "name": "landId",
          "type": "uint256"
        },
        {
          "indexed": false,
          "internalType": "address[]",
          "name": "previousOwners",
          "type": "address[]"
        },
        {
          "indexed": false,
          "internalType": "address",
          "name": "newOwner",
          "type": "address"
        }
      ],
      "name": "LandOwnershipTransferred",
      "type": "event"
    },
    {
      "inputs": [],
      "name": "totalLands",
      "outputs": [
        {
          "internalType": "uint256",
          "name": "",
          "type": "uint256"
        }
      ],
      "stateMutability": "view",
      "type": "function"
    },
    {
      "inputs": [
        {
          "internalType": "uint256",
          "name": "landId",
          "type": "uint256"
        },
        {
          "internalType": "uint256",
          "name": "area",
          "type": "uint256"
        },
        {
          "internalType": "string",
          "name": "location",
          "type": "string"
        },
        {
          "internalType": "string",
          "name": "ipfsHash",
          "type": "string"
        }
      ],
      "name": "registerLand",
      "outputs": [],
      "stateMutability": "nonpayable",
      "type": "function"
    },
    {
      "inputs": [
        {
          "internalType": "uint256",
          "name": "landId",
          "type": "uint256"
        }
      ],
      "name": "getLand",
      "outputs": [
        {
          "components": [
            {
              "internalType": "uint256",
              "name": "land_id",
              "type": "uint256"
            },
            {
              "internalType": "bool",
              "name": "is_govt_approved",
              "type": "bool"
            },
            {
              "internalType": "string",
              "name": "ipfsHash",
              "type": "string"
            },
            {
              "internalType": "address",
              "name": "current_owner",
              "type": "address"
            },
            {
              "internalType": "address[]",
              "name": "previous_owners",
              "type": "address[]"
            },
            {
              "internalType": "uint256",
              "name": "created_at",
              "type": "uint256"
            },
            {
              "internalType": "uint256",
              "name": "area",
              "type": "uint256"
            },
            {
              "internalType": "string",
              "name": "location",
              "type": "string"
            }
          ],
          "internalType": "struct LandRegistrySystem.Land",
          "name": "",
          "type": "tuple"
        }
      ],
      "stateMutability": "view",
      "type": "function"
    },
    {
      "inputs": [
        {
          "internalType": "uint256",
          "name": "landId",
          "type": "uint256"
        },
        {
          "internalType": "string",
          "name": "newIpfsHash1",
          "type": "string"
        }
      ],
      "name": "updateLand",
      "outputs": [],
      "stateMutability": "nonpayable",
      "type": "function"
    },
    {
      "inputs": [
        {
          "internalType": "uint256",
          "name": "landId",
          "type": "uint256"
        }
      ],
      "name": "deleteLand",
      "outputs": [],
      "stateMutability": "nonpayable",
      "type": "function"
    },
    {
      "inputs": [
        {
          "internalType": "uint256",
          "name": "landId",
          "type": "uint256"
        }
      ],
      "name": "deleteTransferRequestsForLand",
      "outputs": [],
      "stateMutability": "nonpayable",
      "type": "function"
    },
    {
      "inputs": [],
      "name": "getNonApprovedLands",
      "outputs": [
        {
          "components": [
            {
              "internalType": "uint256",
              "name": "land_id",
              "type": "uint256"
            },
            {
              "internalType": "bool",
              "name": "is_govt_approved",
              "type": "bool"
            },
            {
              "internalType": "string",
              "name": "ipfsHash",
              "type": "string"
            },
            {
              "internalType": "address",
              "name": "current_owner",
              "type": "address"
            },
            {
              "internalType": "address[]",
              "name": "previous_owners",
              "type": "address[]"
            },
            {
              "internalType": "uint256",
              "name": "created_at",
              "type": "uint256"
            },
            {
              "internalType": "uint256",
              "name": "area",
              "type": "uint256"
            },
            {
              "internalType": "string",
              "name": "location",
              "type": "string"
            }
          ],
          "internalType": "struct LandRegistrySystem.Land[]",
          "name": "",
          "type": "tuple[]"
        }
      ],
      "stateMutability": "view",
      "type": "function"
    },
    {
      "inputs": [
        {
          "internalType": "uint256",
          "name": "_landId",
          "type": "uint256"
        }
      ],
      "name": "approveLand",
      "outputs": [],
      "stateMutability": "nonpayable",
      "type": "function"
    },
    {
      "inputs": [
        {
          "internalType": "uint256",
          "name": "landId",
          "type": "uint256"
        },
        {
          "internalType": "address",
          "name": "newOwner",
          "type": "address"
        }
      ],
      "name": "createTransferRequest",
      "outputs": [],
      "stateMutability": "nonpayable",
      "type": "function"
    },
    {
      "inputs": [
        {
          "internalType": "uint256",
          "name": "landId",
          "type": "uint256"
        },
        {
          "internalType": "address",
          "name": "currentOwner",
          "type": "address"
        },
        {
          "internalType": "string",
          "name": "reason",
          "type": "string"
        }
      ],
      "name": "rejectTransferRequest",
      "outputs": [],
      "stateMutability": "nonpayable",
      "type": "function"
    },
    {
      "inputs": [],
      "name": "getRejectedTransferLandForUser",
      "outputs": [
        {
          "components": [
            {
              "internalType": "uint256",
              "name": "landId",
              "type": "uint256"
            },
            {
              "internalType": "string",
              "name": "reason",
              "type": "string"
            }
          ],
          "internalType": "struct LandRegistrySystem.UserRejectedTransferRequest[]",
          "name": "",
          "type": "tuple[]"
        }
      ],
      "stateMutability": "view",
      "type": "function"
    },
    {
      "inputs": [],
      "name": "getAllTransferRequest",
      "outputs": [
        {
          "components": [
            {
              "internalType": "uint256",
              "name": "created_at",
              "type": "uint256"
            },
            {
              "internalType": "address",
              "name": "previous_owner",
              "type": "address"
            },
            {
              "internalType": "address",
              "name": "new_owner",
              "type": "address"
            },
            {
              "internalType": "uint256",
              "name": "land_id",
              "type": "uint256"
            },
            {
              "internalType": "bool",
              "name": "owner_approved",
              "type": "bool"
            },
            {
              "internalType": "bool",
              "name": "govt_approved",
              "type": "bool"
            },
            {
              "internalType": "uint256",
              "name": "area",
              "type": "uint256"
            },
            {
              "internalType": "string",
              "name": "location",
              "type": "string"
            }
          ],
          "internalType": "struct LandRegistrySystem.TransferRequestTrack[]",
          "name": "",
          "type": "tuple[]"
        }
      ],
      "stateMutability": "view",
      "type": "function"
    },
    {
      "inputs": [],
      "name": "getAllTransferRequests",
      "outputs": [
        {
          "components": [
            {
              "internalType": "uint256",
              "name": "created_at",
              "type": "uint256"
            },
            {
              "internalType": "address",
              "name": "previous_owner",
              "type": "address"
            },
            {
              "internalType": "address",
              "name": "new_owner",
              "type": "address"
            },
            {
              "internalType": "uint256",
              "name": "land_id",
              "type": "uint256"
            },
            {
              "internalType": "bool",
              "name": "owner_approved",
              "type": "bool"
            },
            {
              "internalType": "bool",
              "name": "govt_approved",
              "type": "bool"
            },
            {
              "internalType": "uint256",
              "name": "area",
              "type": "uint256"
            },
            {
              "internalType": "string",
              "name": "location",
              "type": "string"
            }
          ],
          "internalType": "struct LandRegistrySystem.TransferRequestTrack[]",
          "name": "",
          "type": "tuple[]"
        }
      ],
      "stateMutability": "view",
      "type": "function"
    },
    {
      "inputs": [
        {
          "internalType": "uint256",
          "name": "landId",
          "type": "uint256"
        },
        {
          "internalType": "address",
          "name": "currentOwner",
          "type": "address"
        }
      ],
      "name": "approveTransferRequest",
      "outputs": [
        {
          "internalType": "bool",
          "name": "",
          "type": "bool"
        }
      ],
      "stateMutability": "nonpayable",
      "type": "function"
    },
    {
      "inputs": [
        {
          "internalType": "uint256",
          "name": "landId",
          "type": "uint256"
        }
      ],
      "name": "getLandOwners",
      "outputs": [
        {
          "internalType": "address",
          "name": "currentOwner",
          "type": "address"
        },
        {
          "internalType": "address[]",
          "name": "previousOwners",
          "type": "address[]"
        }
      ],
      "stateMutability": "view",
      "type": "function"
    },
    {
      "inputs": [],
      "name": "getOwnedLands",
      "outputs": [
        {
          "components": [
            {
              "internalType": "uint256",
              "name": "land_id",
              "type": "uint256"
            },
            {
              "internalType": "bool",
              "name": "is_govt_approved",
              "type": "bool"
            },
            {
              "internalType": "string",
              "name": "ipfsHash",
              "type": "string"
            },
            {
              "internalType": "address",
              "name": "current_owner",
              "type": "address"
            },
            {
              "internalType": "address[]",
              "name": "previous_owners",
              "type": "address[]"
            },
            {
              "internalType": "uint256",
              "name": "created_at",
              "type": "uint256"
            },
            {
              "internalType": "uint256",
              "name": "area",
              "type": "uint256"
            },
            {
              "internalType": "string",
              "name": "location",
              "type": "string"
            }
          ],
          "internalType": "struct LandRegistrySystem.Land[]",
          "name": "",
          "type": "tuple[]"
        }
      ],
      "stateMutability": "view",
      "type": "function"
    },
    {
      "inputs": [],
      "name": "getAllLands",
      "outputs": [
        {
          "components": [
            {
              "internalType": "uint256",
              "name": "land_id",
              "type": "uint256"
            },
            {
              "internalType": "bool",
              "name": "is_govt_approved",
              "type": "bool"
            },
            {
              "internalType": "string",
              "name": "ipfsHash",
              "type": "string"
            },
            {
              "internalType": "address",
              "name": "current_owner",
              "type": "address"
            },
            {
              "internalType": "address[]",
              "name": "previous_owners",
              "type": "address[]"
            },
            {
              "internalType": "uint256",
              "name": "created_at",
              "type": "uint256"
            },
            {
              "internalType": "uint256",
              "name": "area",
              "type": "uint256"
            },
            {
              "internalType": "string",
              "name": "location",
              "type": "string"
            }
          ],
          "internalType": "struct LandRegistrySystem.Land[]",
          "name": "",
          "type": "tuple[]"
        }
      ],
      "stateMutability": "view",
      "type": "function"
    },
    {
      "inputs": [],
      "name": "getTransferredLands",
      "outputs": [
        {
          "components": [
            {
              "internalType": "uint256",
              "name": "created_at",
              "type": "uint256"
            },
            {
              "internalType": "address",
              "name": "previous_owner",
              "type": "address"
            },
            {
              "internalType": "address",
              "name": "new_owner",
              "type": "address"
            },
            {
              "internalType": "uint256",
              "name": "land_id",
              "type": "uint256"
            },
            {
              "internalType": "bool",
              "name": "owner_approved",
              "type": "bool"
            },
            {
              "internalType": "bool",
              "name": "govt_approved",
              "type": "bool"
            },
            {
              "internalType": "uint256",
              "name": "area",
              "type": "uint256"
            },
            {
              "internalType": "string",
              "name": "location",
              "type": "string"
            }
          ],
          "internalType": "struct LandRegistrySystem.TransferRequestTrack[]",
          "name": "",
          "type": "tuple[]"
        }
      ],
      "stateMutability": "view",
      "type": "function"
    },
    {
      "inputs": [
        {
          "internalType": "address",
          "name": "req",
          "type": "address"
        }
      ],
      "name": "getAddressTransferredLands",
      "outputs": [
        {
          "components": [
            {
              "internalType": "uint256",
              "name": "created_at",
              "type": "uint256"
            },
            {
              "internalType": "address",
              "name": "previous_owner",
              "type": "address"
            },
            {
              "internalType": "address",
              "name": "new_owner",
              "type": "address"
            },
            {
              "internalType": "uint256",
              "name": "land_id",
              "type": "uint256"
            },
            {
              "internalType": "bool",
              "name": "owner_approved",
              "type": "bool"
            },
            {
              "internalType": "bool",
              "name": "govt_approved",
              "type": "bool"
            },
            {
              "internalType": "uint256",
              "name": "area",
              "type": "uint256"
            },
            {
              "internalType": "string",
              "name": "location",
              "type": "string"
            }
          ],
          "internalType": "struct LandRegistrySystem.TransferRequestTrack[]",
          "name": "",
          "type": "tuple[]"
        }
      ],
      "stateMutability": "view",
      "type": "function"
    }
  ],
  "bytecode": "0x608060405234801561001057600080fd5b50336000806101000a81548173ffffffffffffffffffffffffffffffffffffffff021916908373ffffffffffffffffffffffffffffffffffffffff16021790555033600160006101000a81548173ffffffffffffffffffffffffffffffffffffffff021916908373ffffffffffffffffffffffffffffffffffffffff160217905550615b6e80620000a26000396000f3fe608060405234801561001057600080fd5b50600436106101215760003560e01c8063611fd7c9116100ad578063a18f7d9811610071578063a18f7d98146102f7578063a591e87d14610313578063b7b6e54314610331578063f02dd53f1461034f578063fd9b2c8d1461037f57610121565b8063611fd7c91461024057806366269bfc1461025c578063768386681461028d5780638ef1420b146102ab578063926eeb30146102c757610121565b8063360fed97116100f4578063360fed97146101b057806338c887b2146101cc5780634e4dd230146101e85780635a89c745146102045780635d3d5a171461022257610121565b80631d43ef84146101265780631d8de063146101445780632eab1dbf14610162578063348c341914610192575b600080fd5b61012e61039b565b60405161013b91906154f7565b60405180910390f35b61014c61092e565b60405161015991906156b8565b60405180910390f35b61017c60048036038101906101779190614970565b610934565b60405161018991906154f7565b60405180910390f35b61019a610bfb565b6040516101a791906154f7565b60405180910390f35b6101ca60048036038101906101c591906149fe565b611301565b005b6101e660048036038101906101e19190614999565b611908565b005b61020260048036038101906101fd91906149c2565b611a32565b005b61020c611f31565b60405161021991906154d5565b60405180910390f35b61022a61228f565b60405161023791906154f7565b60405180910390f35b61025a60048036038101906102559190614999565b6124c4565b005b61027660048036038101906102719190614999565b6129ae565b604051610284929190615475565b60405180910390f35b610295612a8d565b6040516102a29190615519565b60405180910390f35b6102c560048036038101906102c09190614ab9565b612bc5565b005b6102e160048036038101906102dc91906149c2565b612e9f565b6040516102ee919061553b565b60405180910390f35b610311600480360381019061030c9190614a65565b613760565b005b61031b61388b565b60405161032891906154d5565b60405180910390f35b610339613b75565b60405161034691906154d5565b60405180910390f35b61036960048036038101906103649190614999565b613d46565b6040516103769190615696565b60405180910390f35b61039960048036038101906103949190614999565b61405a565b005b6060600160009054906101000a900473ffffffffffffffffffffffffffffffffffffffff1673ffffffffffffffffffffffffffffffffffffffff163373ffffffffffffffffffffffffffffffffffffffff161461042d576040517f08c379a000000000000000000000000000000000000000000000000000000000815260040161042490615576565b60405180910390fd5b6000805b6002805490508110156105215760006002828154811061047a577f4e487b7100000000000000000000000000000000000000000000000000000000600052603260045260246000fd5b90600052602060002001549050600460006003600084815260200190815260200160002060030160009054906101000a900473ffffffffffffffffffffffffffffffffffffffff1673ffffffffffffffffffffffffffffffffffffffff1673ffffffffffffffffffffffffffffffffffffffff168152602001908152602001600020805490508361050b9190615883565b925050808061051990615a03565b915050610431565b5060008167ffffffffffffffff811115610564577f4e487b7100000000000000000000000000000000000000000000000000000000600052604160045260246000fd5b60405190808252806020026020018201604052801561059d57816020015b61058a6145f1565b8152602001906001900390816105825790505b5090506000805b600280549050811015610924576000600282815481106105ed577f4e487b7100000000000000000000000000000000000000000000000000000000600052603260045260246000fd5b906000526020600020015490506000600460006003600085815260200190815260200160002060030160009054906101000a900473ffffffffffffffffffffffffffffffffffffffff1673ffffffffffffffffffffffffffffffffffffffff1673ffffffffffffffffffffffffffffffffffffffff168152602001908152602001600020805480602002602001604051908101604052809291908181526020016000905b82821015610856578382906000526020600020906007020160405180610100016040529081600082015481526020016001820160009054906101000a900473ffffffffffffffffffffffffffffffffffffffff1673ffffffffffffffffffffffffffffffffffffffff1673ffffffffffffffffffffffffffffffffffffffff1681526020016002820160009054906101000a900473ffffffffffffffffffffffffffffffffffffffff1673ffffffffffffffffffffffffffffffffffffffff1673ffffffffffffffffffffffffffffffffffffffff168152602001600382015481526020016004820160009054906101000a900460ff161515151581526020016004820160019054906101000a900460ff16151515158152602001600582015481526020016006820180546107c5906159b7565b80601f01602080910402602001604051908101604052809291908181526020018280546107f1906159b7565b801561083e5780601f106108135761010080835404028352916020019161083e565b820191906000526020600020905b81548152906001019060200180831161082157829003601f168201915b50505050508152505081526020019060010190610691565b50505050905060005b815181101561090e578181815181106108a1577f4e487b7100000000000000000000000000000000000000000000000000000000600052603260045260246000fd5b60200260200101518686815181106108e2577f4e487b7100000000000000000000000000000000000000000000000000000000600052603260045260246000fd5b602002602001018190525084806108f890615a03565b955050808061090690615a03565b91505061085f565b505050808061091c90615a03565b9150506105a4565b5081935050505090565b60065481565b6060600160009054906101000a900473ffffffffffffffffffffffffffffffffffffffff1673ffffffffffffffffffffffffffffffffffffffff163373ffffffffffffffffffffffffffffffffffffffff16146109c6576040517f08c379a00000000000000000000000000000000000000000000000000000000081526004016109bd90615576565b60405180910390fd5b6000600460008473ffffffffffffffffffffffffffffffffffffffff1673ffffffffffffffffffffffffffffffffffffffff168152602001908152602001600020805480602002602001604051908101604052809291908181526020016000905b82821015610bec578382906000526020600020906007020160405180610100016040529081600082015481526020016001820160009054906101000a900473ffffffffffffffffffffffffffffffffffffffff1673ffffffffffffffffffffffffffffffffffffffff1673ffffffffffffffffffffffffffffffffffffffff1681526020016002820160009054906101000a900473ffffffffffffffffffffffffffffffffffffffff1673ffffffffffffffffffffffffffffffffffffffff1673ffffffffffffffffffffffffffffffffffffffff168152602001600382015481526020016004820160009054906101000a900460ff161515151581526020016004820160019054906101000a900460ff1615151515815260200160058201548152602001600682018054610b5b906159b7565b80601f0160208091040260200160405190810160405280929190818152602001828054610b87906159b7565b8015610bd45780601f10610ba957610100808354040283529160200191610bd4565b820191906000526020600020905b815481529060010190602001808311610bb757829003601f168201915b50505050508152505081526020019060010190610a27565b50505050905080915050919050565b6060600160009054906101000a900473ffffffffffffffffffffffffffffffffffffffff1673ffffffffffffffffffffffffffffffffffffffff163373ffffffffffffffffffffffffffffffffffffffff1614610c8d576040517f08c379a0000000000000000000000000000000000000000000000000000000008152600401610c8490615576565b60405180910390fd5b600080600090505b600280549050811015610d7f57600460006003600060028581548110610ce4577f4e487b7100000000000000000000000000000000000000000000000000000000600052603260045260246000fd5b9060005260206000200154815260200190815260200160002060030160009054906101000a900473ffffffffffffffffffffffffffffffffffffffff1673ffffffffffffffffffffffffffffffffffffffff1673ffffffffffffffffffffffffffffffffffffffff1681526020019081526020016000208054905082610d6a9190615883565b91508080610d7790615a03565b915050610c95565b5060008167ffffffffffffffff811115610dc2577f4e487b7100000000000000000000000000000000000000000000000000000000600052604160045260246000fd5b604051908082528060200260200182016040528015610dfb57816020015b610de86145f1565b815260200190600190039081610de05790505b5090506000805b6002805490508110156112f75760006003600060028481548110610e4f577f4e487b7100000000000000000000000000000000000000000000000000000000600052603260045260246000fd5b9060005260206000200154815260200190815260200160002060030160009054906101000a900473ffffffffffffffffffffffffffffffffffffffff1690506000600460008373ffffffffffffffffffffffffffffffffffffffff1673ffffffffffffffffffffffffffffffffffffffff168152602001908152602001600020905060005b81805490508110156112e157604051806101000160405280838381548110610f25577f4e487b7100000000000000000000000000000000000000000000000000000000600052603260045260246000fd5b9060005260206000209060070201600001548152602001838381548110610f75577f4e487b7100000000000000000000000000000000000000000000000000000000600052603260045260246000fd5b906000526020600020906007020160010160009054906101000a900473ffffffffffffffffffffffffffffffffffffffff1673ffffffffffffffffffffffffffffffffffffffff168152602001838381548110610ffb577f4e487b7100000000000000000000000000000000000000000000000000000000600052603260045260246000fd5b906000526020600020906007020160020160009054906101000a900473ffffffffffffffffffffffffffffffffffffffff1673ffffffffffffffffffffffffffffffffffffffff168152602001838381548110611081577f4e487b7100000000000000000000000000000000000000000000000000000000600052603260045260246000fd5b90600052602060002090600702016003015481526020018383815481106110d1577f4e487b7100000000000000000000000000000000000000000000000000000000600052603260045260246000fd5b906000526020600020906007020160040160009054906101000a900460ff1615158152602001838381548110611130577f4e487b7100000000000000000000000000000000000000000000000000000000600052603260045260246000fd5b906000526020600020906007020160040160019054906101000a900460ff161515815260200183838154811061118f577f4e487b7100000000000000000000000000000000000000000000000000000000600052603260045260246000fd5b90600052602060002090600702016005015481526020018383815481106111df577f4e487b7100000000000000000000000000000000000000000000000000000000600052603260045260246000fd5b906000526020600020906007020160060180546111fb906159b7565b80601f0160208091040260200160405190810160405280929190818152602001828054611227906159b7565b80156112745780601f1061124957610100808354040283529160200191611274565b820191906000526020600020905b81548152906001019060200180831161125757829003601f168201915b50505050508152508686815181106112b5577f4e487b7100000000000000000000000000000000000000000000000000000000600052603260045260246000fd5b602002602001018190525084806112cb90615a03565b95505080806112d990615a03565b915050610ed4565b50505080806112ef90615a03565b915050610e02565b5081935050505090565b600160009054906101000a900473ffffffffffffffffffffffffffffffffffffffff1673ffffffffffffffffffffffffffffffffffffffff163373ffffffffffffffffffffffffffffffffffffffff1614611391576040517f08c379a000000000000000000000000000000000000000000000000000000000815260040161138890615576565b60405180910390fd5b826003600085815260200190815260200160002060000154146113e9576040517f08c379a00000000000000000000000000000000000000000000000000000000081526004016113e090615616565b60405180910390fd5b600760008373ffffffffffffffffffffffffffffffffffffffff1673ffffffffffffffffffffffffffffffffffffffff168152602001908152602001600020604051806040016040528085815260200183815250908060018154018082558091505060019003906000526020600020906002020160009091909190915060008201518160000155602082015181600101908051906020019061148c929190614666565b5050506000600460008473ffffffffffffffffffffffffffffffffffffffff1673ffffffffffffffffffffffffffffffffffffffff168152602001908152602001600020905060005b8180549050811015611901578482828154811061151b577f4e487b7100000000000000000000000000000000000000000000000000000000600052603260045260246000fd5b90600052602060002090600702016003015414801561158e575081818154811061156e577f4e487b7100000000000000000000000000000000000000000000000000000000600052603260045260246000fd5b906000526020600020906007020160040160009054906101000a900460ff165b80156115ef57508181815481106115ce577f4e487b7100000000000000000000000000000000000000000000000000000000600052603260045260246000fd5b906000526020600020906007020160040160019054906101000a900460ff16155b156118ee57816001838054905061160691906158d9565b8154811061163d577f4e487b7100000000000000000000000000000000000000000000000000000000600052603260045260246000fd5b9060005260206000209060070201828281548110611684577f4e487b7100000000000000000000000000000000000000000000000000000000600052603260045260246000fd5b9060005260206000209060070201600082015481600001556001820160009054906101000a900473ffffffffffffffffffffffffffffffffffffffff168160010160006101000a81548173ffffffffffffffffffffffffffffffffffffffff021916908373ffffffffffffffffffffffffffffffffffffffff1602179055506002820160009054906101000a900473ffffffffffffffffffffffffffffffffffffffff168160020160006101000a81548173ffffffffffffffffffffffffffffffffffffffff021916908373ffffffffffffffffffffffffffffffffffffffff160217905550600382015481600301556004820160009054906101000a900460ff168160040160006101000a81548160ff0219169083151502179055506004820160019054906101000a900460ff168160040160016101000a81548160ff0219169083151502179055506005820154816005015560068201816006019080546117ec906159b7565b6117f79291906146ec565b5090505081805480611832577f4e487b7100000000000000000000000000000000000000000000000000000000600052603160045260246000fd5b60019003818190600052602060002090600702016000808201600090556001820160006101000a81549073ffffffffffffffffffffffffffffffffffffffff02191690556002820160006101000a81549073ffffffffffffffffffffffffffffffffffffffff021916905560038201600090556004820160006101000a81549060ff02191690556004820160016101000a81549060ff021916905560058201600090556006820160006118e59190614779565b50509055611901565b80806118f990615a03565b9150506114d5565b5050505050565b600160009054906101000a900473ffffffffffffffffffffffffffffffffffffffff1673ffffffffffffffffffffffffffffffffffffffff163373ffffffffffffffffffffffffffffffffffffffff1614611998576040517f08c379a000000000000000000000000000000000000000000000000000000000815260040161198f90615576565b60405180910390fd5b6003600082815260200190815260200160002060010160009054906101000a900460ff166119f45760016003600083815260200190815260200160002060010160006101000a81548160ff021916908315150217905550611a2f565b6040517f08c379a0000000000000000000000000000000000000000000000000000000008152600401611a2690615596565b60405180910390fd5b50565b60006003600084815260200190815260200160002090503373ffffffffffffffffffffffffffffffffffffffff168160030160009054906101000a900473ffffffffffffffffffffffffffffffffffffffff1673ffffffffffffffffffffffffffffffffffffffff1614611adb576040517f08c379a0000000000000000000000000000000000000000000000000000000008152600401611ad290615636565b60405180910390fd5b6000600460003373ffffffffffffffffffffffffffffffffffffffff1673ffffffffffffffffffffffffffffffffffffffff16815260200190815260200160002090506000805b8280549050811015611bfd5785838281548110611b68577f4e487b7100000000000000000000000000000000000000000000000000000000600052603260045260246000fd5b906000526020600020906007020160030154148015611bdc5750828181548110611bbb577f4e487b7100000000000000000000000000000000000000000000000000000000600052603260045260246000fd5b906000526020600020906007020160040160019054906101000a900460ff16155b15611bea5760019150611bfd565b8080611bf590615a03565b915050611b22565b508015611c3f576040517f08c379a0000000000000000000000000000000000000000000000000000000008152600401611c36906155b6565b60405180910390fd5b600460003373ffffffffffffffffffffffffffffffffffffffff1673ffffffffffffffffffffffffffffffffffffffff1681526020019081526020016000206040518061010001604052804281526020016003600089815260200190815260200160002060030160009054906101000a900473ffffffffffffffffffffffffffffffffffffffff1673ffffffffffffffffffffffffffffffffffffffff1681526020018673ffffffffffffffffffffffffffffffffffffffff1681526020018781526020016001151581526020016003600089815260200190815260200160002060010160009054906101000a900460ff161515815260200160036000898152602001908152602001600020600601548152602001600360008981526020019081526020016000206007018054611d75906159b7565b80601f0160208091040260200160405190810160405280929190818152602001828054611da1906159b7565b8015611dee5780601f10611dc357610100808354040283529160200191611dee565b820191906000526020600020905b815481529060010190602001808311611dd157829003601f168201915b505050505081525090806001815401808255809150506001900390600052602060002090600702016000909190919091506000820151816000015560208201518160010160006101000a81548173ffffffffffffffffffffffffffffffffffffffff021916908373ffffffffffffffffffffffffffffffffffffffff16021790555060408201518160020160006101000a81548173ffffffffffffffffffffffffffffffffffffffff021916908373ffffffffffffffffffffffffffffffffffffffff1602179055506060820151816003015560808201518160040160006101000a81548160ff02191690831515021790555060a08201518160040160016101000a81548160ff02191690831515021790555060c0820151816005015560e0820151816006019080519060200190611f27929190614666565b5050505050505050565b60606000600560003373ffffffffffffffffffffffffffffffffffffffff1673ffffffffffffffffffffffffffffffffffffffff1681526020019081526020016000208054905090506000805b82811015612099576000600560003373ffffffffffffffffffffffffffffffffffffffff1673ffffffffffffffffffffffffffffffffffffffff1681526020019081526020016000208281548110611fff577f4e487b7100000000000000000000000000000000000000000000000000000000600052603260045260246000fd5b906000526020600020015490506003600082815260200190815260200160002060030160009054906101000a900473ffffffffffffffffffffffffffffffffffffffff1673ffffffffffffffffffffffffffffffffffffffff163373ffffffffffffffffffffffffffffffffffffffff16141561208557828061208190615a03565b9350505b50808061209190615a03565b915050611f7e565b5060008167ffffffffffffffff8111156120dc577f4e487b7100000000000000000000000000000000000000000000000000000000600052604160045260246000fd5b60405190808252806020026020018201604052801561211557816020015b6121026147b9565b8152602001906001900390816120fa5790505b5090506000805b84811015612284576000600560003373ffffffffffffffffffffffffffffffffffffffff1673ffffffffffffffffffffffffffffffffffffffff168152602001908152602001600020828154811061219d577f4e487b7100000000000000000000000000000000000000000000000000000000600052603260045260246000fd5b906000526020600020015490506003600082815260200190815260200160002060030160009054906101000a900473ffffffffffffffffffffffffffffffffffffffff1673ffffffffffffffffffffffffffffffffffffffff163373ffffffffffffffffffffffffffffffffffffffff1614156122705761221d81613d46565b848481518110612256577f4e487b7100000000000000000000000000000000000000000000000000000000600052603260045260246000fd5b6020026020010181905250828061226c90615a03565b9350505b50808061227c90615a03565b91505061211c565b508194505050505090565b60606000600460003373ffffffffffffffffffffffffffffffffffffffff1673ffffffffffffffffffffffffffffffffffffffff168152602001908152602001600020805480602002602001604051908101604052809291908181526020016000905b828210156124b7578382906000526020600020906007020160405180610100016040529081600082015481526020016001820160009054906101000a900473ffffffffffffffffffffffffffffffffffffffff1673ffffffffffffffffffffffffffffffffffffffff1673ffffffffffffffffffffffffffffffffffffffff1681526020016002820160009054906101000a900473ffffffffffffffffffffffffffffffffffffffff1673ffffffffffffffffffffffffffffffffffffffff1673ffffffffffffffffffffffffffffffffffffffff168152602001600382015481526020016004820160009054906101000a900460ff161515151581526020016004820160019054906101000a900460ff1615151515815260200160058201548152602001600682018054612426906159b7565b80601f0160208091040260200160405190810160405280929190818152602001828054612452906159b7565b801561249f5780601f106124745761010080835404028352916020019161249f565b820191906000526020600020905b81548152906001019060200180831161248257829003601f168201915b505050505081525050815260200190600101906122f2565b5050505090508091505090565b6003600082815260200190815260200160002060030160009054906101000a900473ffffffffffffffffffffffffffffffffffffffff1673ffffffffffffffffffffffffffffffffffffffff163373ffffffffffffffffffffffffffffffffffffffff1614612568576040517f08c379a000000000000000000000000000000000000000000000000000000000815260040161255f906155f6565b60405180910390fd5b6000600360008381526020019081526020016000206000015414156125c2576040517f08c379a00000000000000000000000000000000000000000000000000000000081526004016125b990615616565b60405180910390fd5b6000600460006003600085815260200190815260200160002060030160009054906101000a900473ffffffffffffffffffffffffffffffffffffffff1673ffffffffffffffffffffffffffffffffffffffff1673ffffffffffffffffffffffffffffffffffffffff168152602001908152602001600020905060005b81805490508110156129a95782828281548110612684577f4e487b7100000000000000000000000000000000000000000000000000000000600052603260045260246000fd5b90600052602060002090600702016003015414156129965781600183805490506126ae91906158d9565b815481106126e5577f4e487b7100000000000000000000000000000000000000000000000000000000600052603260045260246000fd5b906000526020600020906007020182828154811061272c577f4e487b7100000000000000000000000000000000000000000000000000000000600052603260045260246000fd5b9060005260206000209060070201600082015481600001556001820160009054906101000a900473ffffffffffffffffffffffffffffffffffffffff168160010160006101000a81548173ffffffffffffffffffffffffffffffffffffffff021916908373ffffffffffffffffffffffffffffffffffffffff1602179055506002820160009054906101000a900473ffffffffffffffffffffffffffffffffffffffff168160020160006101000a81548173ffffffffffffffffffffffffffffffffffffffff021916908373ffffffffffffffffffffffffffffffffffffffff160217905550600382015481600301556004820160009054906101000a900460ff168160040160006101000a81548160ff0219169083151502179055506004820160019054906101000a900460ff168160040160016101000a81548160ff021916908315150217905550600582015481600501556006820181600601908054612894906159b7565b61289f9291906146ec565b50905050818054806128da577f4e487b7100000000000000000000000000000000000000000000000000000000600052603160045260246000fd5b60019003818190600052602060002090600702016000808201600090556001820160006101000a81549073ffffffffffffffffffffffffffffffffffffffff02191690556002820160006101000a81549073ffffffffffffffffffffffffffffffffffffffff021916905560038201600090556004820160006101000a81549060ff02191690556004820160016101000a81549060ff0219169055600582016000905560068201600061298d9190614779565b505090556129a9565b80806129a190615a03565b91505061263e565b505050565b600060606003600084815260200190815260200160002060030160009054906101000a900473ffffffffffffffffffffffffffffffffffffffff16915060036000848152602001908152602001600020600401805480602002602001604051908101604052809291908181526020018280548015612a8157602002820191906000526020600020905b8160009054906101000a900473ffffffffffffffffffffffffffffffffffffffff1673ffffffffffffffffffffffffffffffffffffffff1681526020019060010190808311612a37575b50505050509050915091565b6060600760003373ffffffffffffffffffffffffffffffffffffffff1673ffffffffffffffffffffffffffffffffffffffff168152602001908152602001600020805480602002602001604051908101604052809291908181526020016000905b82821015612bbc578382906000526020600020906002020160405180604001604052908160008201548152602001600182018054612b2b906159b7565b80601f0160208091040260200160405190810160405280929190818152602001828054612b57906159b7565b8015612ba45780601f10612b7957610100808354040283529160200191612ba4565b820191906000526020600020905b815481529060010190602001808311612b8757829003601f168201915b50505050508152505081526020019060010190612aee565b50505050905090565b8360036000868152602001908152602001600020600001541415612c1e576040517f08c379a0000000000000000000000000000000000000000000000000000000008152600401612c1590615676565b60405180910390fd5b6040518061010001604052808581526020016000151581526020018281526020013373ffffffffffffffffffffffffffffffffffffffff168152602001600067ffffffffffffffff811115612c9c577f4e487b7100000000000000000000000000000000000000000000000000000000600052604160045260246000fd5b604051908082528060200260200182016040528015612cca5781602001602082028036833780820191505090505b50815260200142815260200184815260200183815250600360008681526020019081526020016000206000820151816000015560208201518160010160006101000a81548160ff0219169083151502179055506040820151816002019080519060200190612d39929190614666565b5060608201518160030160006101000a81548173ffffffffffffffffffffffffffffffffffffffff021916908373ffffffffffffffffffffffffffffffffffffffff1602179055506080820151816004019080519060200190612d9d929190614816565b5060a0820151816005015560c0820151816006015560e0820151816007019080519060200190612dce929190614666565b50905050600560003373ffffffffffffffffffffffffffffffffffffffff1673ffffffffffffffffffffffffffffffffffffffff1681526020019081526020016000208490806001815401808255809150506001900390600052602060002001600090919091909150556002849080600181540180825580915050600190039060005260206000200160009091909190915055837f9057270c8b8ada5482b02b2e8c27f21fcc080f96b61e960d87ca6a101bffb64233604051612e91919061545a565b60405180910390a250505050565b6000600160009054906101000a900473ffffffffffffffffffffffffffffffffffffffff1673ffffffffffffffffffffffffffffffffffffffff163373ffffffffffffffffffffffffffffffffffffffff1614612f31576040517f08c379a0000000000000000000000000000000000000000000000000000000008152600401612f2890615576565b60405180910390fd5b600060036000858152602001908152602001600020905083816000015414612f8e576040517f08c379a0000000000000000000000000000000000000000000000000000000008152600401612f8590615656565b60405180910390fd5b600115158160010160009054906101000a900460ff16151514612fe6576040517f08c379a0000000000000000000000000000000000000000000000000000000008152600401612fdd906155d6565b60405180910390fd5b6000600460008573ffffffffffffffffffffffffffffffffffffffff1673ffffffffffffffffffffffffffffffffffffffff168152602001908152602001600020905060005b81805490508110156137525785828281548110613072577f4e487b7100000000000000000000000000000000000000000000000000000000600052603260045260246000fd5b9060005260206000209060070201600301541480156130ec5750600115158282815481106130c9577f4e487b7100000000000000000000000000000000000000000000000000000000600052603260045260246000fd5b906000526020600020906007020160040160009054906101000a900460ff161515145b8015613153575060011515828281548110613130577f4e487b7100000000000000000000000000000000000000000000000000000000600052603260045260246000fd5b906000526020600020906007020160040160019054906101000a900460ff161515145b1561373f576001828281548110613193577f4e487b7100000000000000000000000000000000000000000000000000000000600052603260045260246000fd5b906000526020600020906007020160040160016101000a81548160ff021916908315150217905550826004018360030160009054906101000a900473ffffffffffffffffffffffffffffffffffffffff169080600181540180825580915050600190039060005260206000200160009091909190916101000a81548173ffffffffffffffffffffffffffffffffffffffff021916908373ffffffffffffffffffffffffffffffffffffffff160217905550613272868460030160009054906101000a900473ffffffffffffffffffffffffffffffffffffffff1661435e565b8181815481106132ab577f4e487b7100000000000000000000000000000000000000000000000000000000600052603260045260246000fd5b906000526020600020906007020160020160009054906101000a900473ffffffffffffffffffffffffffffffffffffffff168360030160006101000a81548173ffffffffffffffffffffffffffffffffffffffff021916908373ffffffffffffffffffffffffffffffffffffffff1602179055506005600083838154811061335c577f4e487b7100000000000000000000000000000000000000000000000000000000600052603260045260246000fd5b906000526020600020906007020160020160009054906101000a900473ffffffffffffffffffffffffffffffffffffffff1673ffffffffffffffffffffffffffffffffffffffff1673ffffffffffffffffffffffffffffffffffffffff168152602001908152602001600020869080600181540180825580915050600190039060005260206000200160009091909190915055857f95a86ff9580f7df077cb15f95dac46778559065f03f97c11b5c3000491da9a3d60036000898152602001908152602001600020600401876040516134369291906154a5565b60405180910390a2816001838054905061345091906158d9565b81548110613487577f4e487b7100000000000000000000000000000000000000000000000000000000600052603260045260246000fd5b90600052602060002090600702018282815481106134ce577f4e487b7100000000000000000000000000000000000000000000000000000000600052603260045260246000fd5b9060005260206000209060070201600082015481600001556001820160009054906101000a900473ffffffffffffffffffffffffffffffffffffffff168160010160006101000a81548173ffffffffffffffffffffffffffffffffffffffff021916908373ffffffffffffffffffffffffffffffffffffffff1602179055506002820160009054906101000a900473ffffffffffffffffffffffffffffffffffffffff168160020160006101000a81548173ffffffffffffffffffffffffffffffffffffffff021916908373ffffffffffffffffffffffffffffffffffffffff160217905550600382015481600301556004820160009054906101000a900460ff168160040160006101000a81548160ff0219169083151502179055506004820160019054906101000a900460ff168160040160016101000a81548160ff021916908315150217905550600582015481600501556006820181600601908054613636906159b7565b6136419291906146ec565b509050508180548061367c577f4e487b7100000000000000000000000000000000000000000000000000000000600052603160045260246000fd5b60019003818190600052602060002090600702016000808201600090556001820160006101000a81549073ffffffffffffffffffffffffffffffffffffffff02191690556002820160006101000a81549073ffffffffffffffffffffffffffffffffffffffff021916905560038201600090556004820160006101000a81549060ff02191690556004820160016101000a81549060ff0219169055600582016000905560068201600061372f9190614779565b505090556001935050505061375a565b808061374a90615a03565b91505061302c565b506000925050505b92915050565b816003600084815260200190815260200160002060000154146137b8576040517f08c379a00000000000000000000000000000000000000000000000000000000081526004016137af90615616565b60405180910390fd5b6003600083815260200190815260200160002060030160009054906101000a900473ffffffffffffffffffffffffffffffffffffffff1673ffffffffffffffffffffffffffffffffffffffff163373ffffffffffffffffffffffffffffffffffffffff161461385c576040517f08c379a000000000000000000000000000000000000000000000000000000000815260040161385390615556565b60405180910390fd5b80600360008481526020019081526020016000206002019080519060200190613886929190614666565b505050565b6060600160009054906101000a900473ffffffffffffffffffffffffffffffffffffffff1673ffffffffffffffffffffffffffffffffffffffff163373ffffffffffffffffffffffffffffffffffffffff161461391d576040517f08c379a000000000000000000000000000000000000000000000000000000000815260040161391490615576565b60405180910390fd5b6000805b6002805490508110156139bc57600360006002838154811061396c577f4e487b7100000000000000000000000000000000000000000000000000000000600052603260045260246000fd5b9060005260206000200154815260200190815260200160002060010160009054906101000a900460ff166139a95781806139a590615a03565b9250505b80806139b490615a03565b915050613921565b5060008167ffffffffffffffff8111156139ff577f4e487b7100000000000000000000000000000000000000000000000000000000600052604160045260246000fd5b604051908082528060200260200182016040528015613a3857816020015b613a256147b9565b815260200190600190039081613a1d5790505b5090506000805b600280549050811015613b6b576003600060028381548110613a8a577f4e487b7100000000000000000000000000000000000000000000000000000000600052603260045260246000fd5b9060005260206000200154815260200190815260200160002060010160009054906101000a900460ff16613b5857613b0560028281548110613af5577f4e487b7100000000000000000000000000000000000000000000000000000000600052603260045260246000fd5b9060005260206000200154613d46565b838381518110613b3e577f4e487b7100000000000000000000000000000000000000000000000000000000600052603260045260246000fd5b60200260200101819052508180613b5490615a03565b9250505b8080613b6390615a03565b915050613a3f565b5081935050505090565b6060600160009054906101000a900473ffffffffffffffffffffffffffffffffffffffff1673ffffffffffffffffffffffffffffffffffffffff163373ffffffffffffffffffffffffffffffffffffffff1614613c07576040517f08c379a0000000000000000000000000000000000000000000000000000000008152600401613bfe90615576565b60405180910390fd5b600060028054905067ffffffffffffffff811115613c4e577f4e487b7100000000000000000000000000000000000000000000000000000000600052604160045260246000fd5b604051908082528060200260200182016040528015613c8757816020015b613c746147b9565b815260200190600190039081613c6c5790505b50905060005b600280549050811015613d3e57613ce760028281548110613cd7577f4e487b7100000000000000000000000000000000000000000000000000000000600052603260045260246000fd5b9060005260206000200154613d46565b828281518110613d20577f4e487b7100000000000000000000000000000000000000000000000000000000600052603260045260246000fd5b60200260200101819052508080613d3690615a03565b915050613c8d565b508091505090565b613d4e6147b9565b81600360008481526020019081526020016000206000015414613da6576040517f08c379a0000000000000000000000000000000000000000000000000000000008152600401613d9d90615616565b60405180910390fd5b6040518061010001604052808381526020016003600085815260200190815260200160002060010160009054906101000a900460ff1615158152602001600360008581526020019081526020016000206002018054613e04906159b7565b80601f0160208091040260200160405190810160405280929190818152602001828054613e30906159b7565b8015613e7d5780601f10613e5257610100808354040283529160200191613e7d565b820191906000526020600020905b815481529060010190602001808311613e6057829003601f168201915b505050505081526020016003600085815260200190815260200160002060030160009054906101000a900473ffffffffffffffffffffffffffffffffffffffff1673ffffffffffffffffffffffffffffffffffffffff16815260200160036000858152602001908152602001600020600401805480602002602001604051908101604052809291908181526020018280548015613f6f57602002820191906000526020600020905b8160009054906101000a900473ffffffffffffffffffffffffffffffffffffffff1673ffffffffffffffffffffffffffffffffffffffff1681526020019060010190808311613f25575b505050505081526020016003600085815260200190815260200160002060050154815260200160036000858152602001908152602001600020600601548152602001600360008581526020019081526020016000206007018054613fd2906159b7565b80601f0160208091040260200160405190810160405280929190818152602001828054613ffe906159b7565b801561404b5780601f106140205761010080835404028352916020019161404b565b820191906000526020600020905b81548152906001019060200180831161402e57829003601f168201915b50505050508152509050919050565b6003600082815260200190815260200160002060030160009054906101000a900473ffffffffffffffffffffffffffffffffffffffff1673ffffffffffffffffffffffffffffffffffffffff163373ffffffffffffffffffffffffffffffffffffffff16146140fe576040517f08c379a00000000000000000000000000000000000000000000000000000000081526004016140f5906155f6565b60405180910390fd5b600060036000838152602001908152602001600020600001541415614158576040517f08c379a000000000000000000000000000000000000000000000000000000000815260040161414f90615616565b60405180910390fd5b614161816124c4565b600360008281526020019081526020016000206000808201600090556001820160006101000a81549060ff02191690556002820160006141a19190614779565b6003820160006101000a81549073ffffffffffffffffffffffffffffffffffffffff02191690556004820160006141d891906148a0565b600582016000905560068201600090556007820160006141f89190614779565b505060005b60028054905081101561435a578160028281548110614245577f4e487b7100000000000000000000000000000000000000000000000000000000600052603260045260246000fd5b90600052602060002001541415614347576002600160028054905061426a91906158d9565b815481106142a1577f4e487b7100000000000000000000000000000000000000000000000000000000600052603260045260246000fd5b9060005260206000200154600282815481106142e6577f4e487b7100000000000000000000000000000000000000000000000000000000600052603260045260246000fd5b9060005260206000200181905550600280548061432c577f4e487b7100000000000000000000000000000000000000000000000000000000600052603160045260246000fd5b6001900381819060005260206000200160009055905561435a565b808061435290615a03565b9150506141fd565b5050565b6000600560003373ffffffffffffffffffffffffffffffffffffffff1673ffffffffffffffffffffffffffffffffffffffff16815260200190815260200160002080549050905060005b818110156145eb5783600560008573ffffffffffffffffffffffffffffffffffffffff1673ffffffffffffffffffffffffffffffffffffffff1681526020019081526020016000208281548110614428577f4e487b7100000000000000000000000000000000000000000000000000000000600052603260045260246000fd5b906000526020600020015414156145d857600560008473ffffffffffffffffffffffffffffffffffffffff1673ffffffffffffffffffffffffffffffffffffffff16815260200190815260200160002060018361448591906158d9565b815481106144bc577f4e487b7100000000000000000000000000000000000000000000000000000000600052603260045260246000fd5b9060005260206000200154600560008573ffffffffffffffffffffffffffffffffffffffff1673ffffffffffffffffffffffffffffffffffffffff168152602001908152602001600020828154811061453e577f4e487b7100000000000000000000000000000000000000000000000000000000600052603260045260246000fd5b9060005260206000200181905550600560008473ffffffffffffffffffffffffffffffffffffffff1673ffffffffffffffffffffffffffffffffffffffff1681526020019081526020016000208054806145c1577f4e487b7100000000000000000000000000000000000000000000000000000000600052603160045260246000fd5b600190038181906000526020600020016000905590555b80806145e390615a03565b9150506143a8565b50505050565b60405180610100016040528060008152602001600073ffffffffffffffffffffffffffffffffffffffff168152602001600073ffffffffffffffffffffffffffffffffffffffff1681526020016000815260200160001515815260200160001515815260200160008152602001606081525090565b828054614672906159b7565b90600052602060002090601f01602090048101928261469457600085556146db565b82601f106146ad57805160ff19168380011785556146db565b828001600101855582156146db579182015b828111156146da5782518255916020019190600101906146bf565b5b5090506146e891906148c1565b5090565b8280546146f8906159b7565b90600052602060002090601f01602090048101928261471a5760008555614768565b82601f1061472b5780548555614768565b8280016001018555821561476857600052602060002091601f016020900482015b8281111561476757825482559160010191906001019061474c565b5b50905061477591906148c1565b5090565b508054614785906159b7565b6000825580601f1061479757506147b6565b601f0160209004906000526020600020908101906147b591906148c1565b5b50565b6040518061010001604052806000815260200160001515815260200160608152602001600073ffffffffffffffffffffffffffffffffffffffff168152602001606081526020016000815260200160008152602001606081525090565b82805482825590600052602060002090810192821561488f579160200282015b8281111561488e5782518260006101000a81548173ffffffffffffffffffffffffffffffffffffffff021916908373ffffffffffffffffffffffffffffffffffffffff16021790555091602001919060010190614836565b5b50905061489c91906148c1565b5090565b50805460008255906000526020600020908101906148be91906148c1565b50565b5b808211156148da5760008160009055506001016148c2565b5090565b60006148f16148ec84615704565b6156d3565b90508281526020810184848401111561490957600080fd5b614914848285615975565b509392505050565b60008135905061492b81615b0a565b92915050565b600082601f83011261494257600080fd5b81356149528482602086016148de565b91505092915050565b60008135905061496a81615b21565b92915050565b60006020828403121561498257600080fd5b60006149908482850161491c565b91505092915050565b6000602082840312156149ab57600080fd5b60006149b98482850161495b565b91505092915050565b600080604083850312156149d557600080fd5b60006149e38582860161495b565b92505060206149f48582860161491c565b9150509250929050565b600080600060608486031215614a1357600080fd5b6000614a218682870161495b565b9350506020614a328682870161491c565b925050604084013567ffffffffffffffff811115614a4f57600080fd5b614a5b86828701614931565b9150509250925092565b60008060408385031215614a7857600080fd5b6000614a868582860161495b565b925050602083013567ffffffffffffffff811115614aa357600080fd5b614aaf85828601614931565b9150509250929050565b60008060008060808587031215614acf57600080fd5b6000614add8782880161495b565b9450506020614aee8782880161495b565b935050604085013567ffffffffffffffff811115614b0b57600080fd5b614b1787828801614931565b925050606085013567ffffffffffffffff811115614b3457600080fd5b614b4087828801614931565b91505092959194509250565b6000614b588383614ba0565b60208301905092915050565b6000614b7083836151d3565b905092915050565b6000614b84838361534f565b905092915050565b6000614b9883836153ff565b905092915050565b614ba98161592d565b82525050565b614bb88161592d565b82525050565b6000614bc982615789565b614bd3818561580c565b9350614bde83615734565b8060005b83811015614c0f578151614bf68882614b4c565b9750614c01836157cb565b925050600181019050614be2565b5085935050505092915050565b6000614c2782615789565b614c31818561581d565b9350614c3c83615734565b8060005b83811015614c6d578151614c548882614b4c565b9750614c5f836157cb565b925050600181019050614c40565b5085935050505092915050565b6000614c8582615794565b614c8f818561581d565b9350614c9a83615744565b8060005b83811015614cd257614caf82615ad9565b614cb98882614b4c565b9750614cc4836157d8565b925050600181019050614c9e565b5085935050505092915050565b6000614cea8261579f565b614cf4818561582e565b935083602082028501614d0685615759565b8060005b85811015614d425784840389528151614d238582614b64565b9450614d2e836157e5565b925060208a01995050600181019050614d0a565b50829750879550505050505092915050565b6000614d5f826157aa565b614d69818561583f565b935083602082028501614d7b85615769565b8060005b85811015614db75784840389528151614d988582614b78565b9450614da3836157f2565b925060208a01995050600181019050614d7f565b50829750879550505050505092915050565b6000614dd4826157b5565b614dde8185615850565b935083602082028501614df085615779565b8060005b85811015614e2c5784840389528151614e0d8582614b8c565b9450614e18836157ff565b925060208a01995050600181019050614df4565b50829750879550505050505092915050565b614e478161593f565b82525050565b614e568161593f565b82525050565b6000614e67826157c0565b614e718185615861565b9350614e81818560208601615984565b614e8a81615aec565b840191505092915050565b6000614ea2601f83615872565b91507f4f6e6c79206c616e64206f776e65722063616e20757064617465206c616e64006000830152602082019050919050565b6000614ee2602383615872565b91507f4f6e6c792061646d696e732063616e20706572666f726d20746869732061637460008301527f696f6e00000000000000000000000000000000000000000000000000000000006020830152604082019050919050565b6000614f48602383615872565b91507f4c616e6420616c726561647920617070726f76656420627920676f7665726e6d60008301527f656e7400000000000000000000000000000000000000000000000000000000006020830152604082019050919050565b6000614fae603983615872565b91507f546865726520697320616c726561647920612070656e64696e67207472616e7360008301527f666572207265717565737420666f722074686973206c616e64000000000000006020830152604082019050919050565b6000615014602983615872565b91507f54686973206c616e64206f776e65727368697020686173206e6f74206265656e60008301527f20617070726f76656400000000000000000000000000000000000000000000006020830152604082019050919050565b600061507a601a83615872565b91507f4f6e6c79206f776e65722063616e2064656c657465206c616e640000000000006000830152602082019050919050565b60006150ba602083615872565b91507f4c616e642077697468207468697320494420646f6573206e6f742065786973746000830152602082019050919050565b60006150fa602d83615872565b91507f4f6e6c79207468652063757272656e74206f776e65722063616e207472616e7360008301527f666572206f776e657273686970000000000000000000000000000000000000006020830152604082019050919050565b6000615160601783615872565b91507f54686973206c616e6420646f65736e27742065786973740000000000000000006000830152602082019050919050565b60006151a0602083615872565b91507f4c616e642077697468207468697320494420616c7265616479206578697374736000830152602082019050919050565b6000610100830160008301516151ec600086018261543c565b5060208301516151ff6020860182614e3e565b50604083015184820360408601526152178282614e5c565b915050606083015161522c6060860182614ba0565b50608083015184820360808601526152448282614bbe565b91505060a083015161525960a086018261543c565b5060c083015161526c60c086018261543c565b5060e083015184820360e08601526152848282614e5c565b9150508091505092915050565b6000610100830160008301516152aa600086018261543c565b5060208301516152bd6020860182614e3e565b50604083015184820360408601526152d58282614e5c565b91505060608301516152ea6060860182614ba0565b50608083015184820360808601526153028282614bbe565b91505060a083015161531760a086018261543c565b5060c083015161532a60c086018261543c565b5060e083015184820360e08601526153428282614e5c565b9150508091505092915050565b600061010083016000830151615368600086018261543c565b50602083015161537b6020860182614ba0565b50604083015161538e6040860182614ba0565b5060608301516153a1606086018261543c565b5060808301516153b46080860182614e3e565b5060a08301516153c760a0860182614e3e565b5060c08301516153da60c086018261543c565b5060e083015184820360e08601526153f28282614e5c565b9150508091505092915050565b6000604083016000830151615417600086018261543c565b506020830151848203602086015261542f8282614e5c565b9150508091505092915050565b6154458161596b565b82525050565b6154548161596b565b82525050565b600060208201905061546f6000830184614baf565b92915050565b600060408201905061548a6000830185614baf565b818103602083015261549c8184614c1c565b90509392505050565b600060408201905081810360008301526154bf8185614c7a565b90506154ce6020830184614baf565b9392505050565b600060208201905081810360008301526154ef8184614cdf565b905092915050565b600060208201905081810360008301526155118184614d54565b905092915050565b600060208201905081810360008301526155338184614dc9565b905092915050565b60006020820190506155506000830184614e4d565b92915050565b6000602082019050818103600083015261556f81614e95565b9050919050565b6000602082019050818103600083015261558f81614ed5565b9050919050565b600060208201905081810360008301526155af81614f3b565b9050919050565b600060208201905081810360008301526155cf81614fa1565b9050919050565b600060208201905081810360008301526155ef81615007565b9050919050565b6000602082019050818103600083015261560f8161506d565b9050919050565b6000602082019050818103600083015261562f816150ad565b9050919050565b6000602082019050818103600083015261564f816150ed565b9050919050565b6000602082019050818103600083015261566f81615153565b9050919050565b6000602082019050818103600083015261568f81615193565b9050919050565b600060208201905081810360008301526156b08184615291565b905092915050565b60006020820190506156cd600083018461544b565b92915050565b6000604051905081810181811067ffffffffffffffff821117156156fa576156f9615aaa565b5b8060405250919050565b600067ffffffffffffffff82111561571f5761571e615aaa565b5b601f19601f8301169050602081019050919050565b6000819050602082019050919050565b60008190508160005260206000209050919050565b6000819050602082019050919050565b6000819050602082019050919050565b6000819050602082019050919050565b600081519050919050565b600081549050919050565b600081519050919050565b600081519050919050565b600081519050919050565b600081519050919050565b6000602082019050919050565b6000600182019050919050565b6000602082019050919050565b6000602082019050919050565b6000602082019050919050565b600082825260208201905092915050565b600082825260208201905092915050565b600082825260208201905092915050565b600082825260208201905092915050565b600082825260208201905092915050565b600082825260208201905092915050565b600082825260208201905092915050565b600061588e8261596b565b91506158998361596b565b9250827fffffffffffffffffffffffffffffffffffffffffffffffffffffffffffffffff038211156158ce576158cd615a4c565b5b828201905092915050565b60006158e48261596b565b91506158ef8361596b565b92508282101561590257615901615a4c565b5b828203905092915050565b600073ffffffffffffffffffffffffffffffffffffffff82169050919050565b60006159388261594b565b9050919050565b60008115159050919050565b600073ffffffffffffffffffffffffffffffffffffffff82169050919050565b6000819050919050565b82818337600083830152505050565b60005b838110156159a2578082015181840152602081019050615987565b838111156159b1576000848401525b50505050565b600060028204905060018216806159cf57607f821691505b602082108114156159e3576159e2615a7b565b5b50919050565b60006159fc6159f783615afd565b61590d565b9050919050565b6000615a0e8261596b565b91507fffffffffffffffffffffffffffffffffffffffffffffffffffffffffffffffff821415615a4157615a40615a4c565b5b600182019050919050565b7f4e487b7100000000000000000000000000000000000000000000000000000000600052601160045260246000fd5b7f4e487b7100000000000000000000000000000000000000000000000000000000600052602260045260246000fd5b7f4e487b7100000000000000000000000000000000000000000000000000000000600052604160045260246000fd5b6000615ae582546159e9565b9050919050565b6000601f19601f8301169050919050565b60008160001c9050919050565b615b138161592d565b8114615b1e57600080fd5b50565b615b2a8161596b565b8114615b3557600080fd5b5056fea26469706673582212208624b309c5fad43ed508e4a70b33cfedbacd1cb406a4d481bab8d60d2780b07264736f6c63430008000033",
  "immutableReferences": {},
  "source": "// SPDX-License-Identifier: MIT\r\npragma solidity ^0.8.0;\r\n\r\ncontract LandRegistrySystem{\r\n    struct Land {\r\n        uint256 land_id;\r\n        bool is_govt_approved;\r\n        string ipfsHash; // Hashes of land documents stored off-chain (e.g., IPFS)\r\n        address current_owner;\r\n        address[] previous_owners;\r\n        uint256 created_at;\r\n        uint256 area; // Area in square meters\r\n        string location;\r\n    }\r\n\r\n    struct TransferRequestTrack {\r\n        uint256 created_at;\r\n        address previous_owner;\r\n        address new_owner;\r\n        uint256 land_id;\r\n        bool owner_approved;\r\n        bool govt_approved;\r\n        uint256 area; // Area in square meters\r\n        string location;\r\n    }\r\n\r\n    address private owner;\r\n    address private adminAddress;\r\n    uint256[] private landIds;\r\n    mapping(uint256 => Land) private lands;\r\n    mapping(address => TransferRequestTrack[]) private userTransferRequests;\r\n    mapping(address => uint256[]) private userLandIds; // Keep track of land IDs owned by each use\r\n\r\n    event LandOwnershipTransferred(\r\n        uint256 indexed landId,\r\n        address[] previousOwners,\r\n        address newOwner\r\n    );\r\n    event LandCreated(uint256 indexed landId, address newOwner);\r\n\r\n    uint256 public totalLands;\r\n\r\n    modifier onlyAdmin() {\r\n        require(\r\n            msg.sender == adminAddress,\r\n            \"Only admins can perform this action\"\r\n        );\r\n        _;\r\n    }\r\n\r\n    modifier onlyOwner() {\r\n        require(\r\n            msg.sender == owner,\r\n            \"Only the contract owner can perform this action\"\r\n        );\r\n        _;\r\n    }\r\n\r\n    constructor() {\r\n        owner = msg.sender;\r\n        adminAddress = msg.sender;\r\n    }\r\n\r\n    function registerLand(\r\n        uint256 landId,\r\n        uint256 area,\r\n        string memory location,\r\n        string memory ipfsHash\r\n    ) public {\r\n        require(\r\n            lands[landId].land_id != landId,\r\n            \"Land with this ID already exists\"\r\n        );\r\n\r\n        lands[landId] = Land({\r\n            land_id: landId,\r\n            is_govt_approved: false,\r\n            ipfsHash: ipfsHash,\r\n            area: area, // Area in square meters\r\n            location: location,\r\n            current_owner: msg.sender,\r\n            previous_owners: new address[](0),\r\n            created_at: block.timestamp\r\n        });\r\n        userLandIds[msg.sender].push(landId);\r\n        landIds.push(landId);\r\n        emit LandCreated(landId, msg.sender);\r\n    }\r\n\r\n    function getLand(uint256 landId) public view returns (Land memory) {\r\n        require(\r\n            lands[landId].land_id == landId,\r\n            \"Land with this ID does not exist\"\r\n        );\r\n\r\n        return\r\n            Land({\r\n                land_id: landId,\r\n                is_govt_approved: lands[landId].is_govt_approved,\r\n                ipfsHash: lands[landId].ipfsHash,\r\n                area: lands[landId].area, // Area in square meters\r\n                location: lands[landId].location,\r\n                current_owner: lands[landId].current_owner,\r\n                previous_owners: lands[landId].previous_owners,\r\n                created_at: lands[landId].created_at\r\n            });\r\n    }\r\n    function updateLand(uint256 landId, string memory newIpfsHash1) public {\r\n        require(\r\n            lands[landId].land_id == landId,\r\n            \"Land with this ID does not exist\"\r\n        );\r\n        require(\r\n            msg.sender == lands[landId].current_owner,\r\n            \"Only land owner can update land\"\r\n        );\r\n        lands[landId].ipfsHash = newIpfsHash1;\r\n    }\r\n    function deleteLand(uint256 landId) public {\r\n        require(\r\n            msg.sender == lands[landId].current_owner,\r\n            \"Only owner can delete land\"\r\n        );\r\n        require(lands[landId].land_id != 0, \"Land with this ID does not exist\");\r\n        deleteTransferRequestsForLand(landId);\r\n        delete lands[landId];\r\n        for (uint256 i = 0; i < landIds.length; i++) {\r\n            if (landIds[i] == landId) {\r\n                landIds[i] = landIds[landIds.length - 1];\r\n                landIds.pop();\r\n                break;\r\n            }\r\n        }\r\n    }\r\n\r\n    function deleteTransferRequestsForLand(uint256 landId) public {\r\n        require(\r\n            msg.sender == lands[landId].current_owner,\r\n            \"Only owner can delete land\"\r\n        );\r\n        require(lands[landId].land_id != 0, \"Land with this ID does not exist\");\r\n        TransferRequestTrack[] storage userTransfers = userTransferRequests[\r\n            lands[landId].current_owner\r\n        ];\r\n        for (uint256 i = 0; i < userTransfers.length; i++) {\r\n            if (userTransfers[i].land_id == landId) {\r\n                // Remove the transfer request from the array\r\n                userTransfers[i] = userTransfers[userTransfers.length - 1];\r\n                userTransfers.pop();\r\n                break;\r\n            }\r\n        }\r\n    }\r\n\r\n    function getNonApprovedLands()\r\n        public\r\n        view\r\n        onlyAdmin\r\n        returns (Land[] memory)\r\n    {\r\n        uint256 nonApprovedCount = 0;\r\n        for (uint256 i = 0; i < landIds.length; i++) {\r\n            if (!lands[landIds[i]].is_govt_approved) {\r\n                nonApprovedCount++;\r\n            }\r\n        }\r\n\r\n        Land[] memory nonApprovedLands = new Land[](nonApprovedCount);\r\n        uint256 index = 0;\r\n        for (uint256 i = 0; i < landIds.length; i++) {\r\n            if (!lands[landIds[i]].is_govt_approved) {\r\n                nonApprovedLands[index] = getLand(landIds[i]);\r\n                index++;\r\n            }\r\n        }\r\n        return nonApprovedLands;\r\n    }\r\n\r\n    function approveLand(uint256 _landId) public onlyAdmin {\r\n        if (!lands[_landId].is_govt_approved) {\r\n            lands[_landId].is_govt_approved = true;\r\n        } else {\r\n            revert(\"Land already approved by government\");\r\n        }\r\n    }\r\n\r\n    function createTransferRequest(uint256 landId, address newOwner) public {\r\n        Land storage land = lands[landId];\r\n        require(\r\n            land.current_owner == msg.sender,\r\n            \"Only the current owner can transfer ownership\"\r\n        );\r\n\r\n        TransferRequestTrack[] storage userTransfers = userTransferRequests[\r\n            msg.sender\r\n        ];\r\n        bool existingRequest = false;\r\n        for (uint256 i = 0; i < userTransfers.length; i++) {\r\n            if (\r\n                userTransfers[i].land_id == landId &&\r\n                !userTransfers[i].govt_approved\r\n            ) {\r\n                existingRequest = true;\r\n                break;\r\n            }\r\n        }\r\n        require(\r\n            !existingRequest,\r\n            \"There is already a pending transfer request for this land\"\r\n        );\r\n\r\n        userTransferRequests[msg.sender].push(\r\n            TransferRequestTrack({\r\n                land_id: landId,\r\n                previous_owner: lands[landId].current_owner,\r\n                new_owner: newOwner,\r\n                owner_approved: true,\r\n                govt_approved: lands[landId].is_govt_approved,\r\n                area: lands[landId].area,\r\n                location: lands[landId].location,\r\n                created_at: block.timestamp\r\n            })\r\n        );\r\n    }\r\n\r\n    struct UserRejectedTransferRequest {\r\n        uint256 landId;\r\n        string reason;\r\n    }\r\n\r\n    mapping(address => UserRejectedTransferRequest[])\r\n        private userRejectedTransferRequests;\r\n\r\n    function rejectTransferRequest(\r\n        uint256 landId,\r\n        address currentOwner,\r\n        string memory reason\r\n    ) public onlyAdmin {\r\n        require(\r\n            lands[landId].land_id == landId,\r\n            \"Land with this ID does not exist\"\r\n        );\r\n\r\n        userRejectedTransferRequests[currentOwner].push(\r\n            UserRejectedTransferRequest(landId, reason)\r\n        );\r\n\r\n        TransferRequestTrack[] storage userTransfers = userTransferRequests[\r\n            currentOwner\r\n        ];\r\n        for (uint256 i = 0; i < userTransfers.length; i++) {\r\n            if (\r\n                userTransfers[i].land_id == landId &&\r\n                userTransfers[i].owner_approved &&\r\n                !userTransfers[i].govt_approved\r\n            ) {\r\n                userTransfers[i] = userTransfers[userTransfers.length - 1];\r\n                userTransfers.pop();\r\n                break;\r\n            }\r\n        }\r\n    }\r\n\r\n    function getRejectedTransferLandForUser()\r\n        public\r\n        view\r\n        returns (UserRejectedTransferRequest[] memory)\r\n    {\r\n        return userRejectedTransferRequests[msg.sender];\r\n    }\r\n\r\n    function getAllTransferRequest()\r\n        public\r\n        view\r\n        onlyAdmin\r\n        returns (TransferRequestTrack[] memory)\r\n    {\r\n        uint256 totalRequests = 0;\r\n        for (uint256 i = 0; i < landIds.length; i++) {\r\n            uint256 landId = landIds[i];\r\n            totalRequests += userTransferRequests[lands[landId].current_owner]\r\n                .length;\r\n        }\r\n        TransferRequestTrack[] memory allRequests = new TransferRequestTrack[](\r\n            totalRequests\r\n        );\r\n        uint256 index = 0;\r\n        for (uint256 i = 0; i < landIds.length; i++) {\r\n            uint256 landId = landIds[i];\r\n            TransferRequestTrack[] memory requests = userTransferRequests[\r\n                lands[landId].current_owner\r\n            ];\r\n            for (uint256 j = 0; j < requests.length; j++) {\r\n                allRequests[index] = requests[j];\r\n                index++;\r\n            }\r\n        }\r\n        return allRequests;\r\n    }\r\n\r\n    function getAllTransferRequests()\r\n        public\r\n        view\r\n        onlyAdmin\r\n        returns (TransferRequestTrack[] memory)\r\n    {\r\n        uint256 totalRequests;\r\n        for (uint256 i = 0; i < landIds.length; i++) {\r\n            totalRequests += userTransferRequests[\r\n                lands[landIds[i]].current_owner\r\n            ].length;\r\n        }\r\n\r\n        TransferRequestTrack[] memory allRequests = new TransferRequestTrack[](\r\n            totalRequests\r\n        );\r\n        uint256 index = 0;\r\n        for (uint256 i = 0; i < landIds.length; i++) {\r\n            address currentOwner = lands[landIds[i]].current_owner;\r\n            TransferRequestTrack[] storage requests = userTransferRequests[\r\n                currentOwner\r\n            ];\r\n            for (uint256 j = 0; j < requests.length; j++) {\r\n                allRequests[index] = TransferRequestTrack({\r\n                    created_at: requests[j].created_at,\r\n                    previous_owner: requests[j].previous_owner,\r\n                    new_owner: requests[j].new_owner,\r\n                    land_id: requests[j].land_id,\r\n                    owner_approved: requests[j].owner_approved,\r\n                    govt_approved: requests[j].govt_approved,\r\n                    area: requests[j].area,\r\n                    location: requests[j].location\r\n                });\r\n                index++;\r\n            }\r\n        }\r\n        return allRequests;\r\n    }\r\n\r\n    function approveTransferRequest(\r\n        uint256 landId,\r\n        address currentOwner\r\n    ) public onlyAdmin returns (bool) {\r\n        Land storage land = lands[landId];\r\n        require(land.land_id == landId, \"This land doesn't exist\");\r\n        require(\r\n            land.is_govt_approved == true,\r\n            \"This land ownership has not been approved\"\r\n        );\r\n\r\n        TransferRequestTrack[] storage userTransfers = userTransferRequests[\r\n            currentOwner\r\n        ];\r\n        for (uint256 i = 0; i < userTransfers.length; i++) {\r\n            if (\r\n                userTransfers[i].land_id == landId &&\r\n                userTransfers[i].owner_approved == true &&\r\n                userTransfers[i].govt_approved == true\r\n            ) {\r\n                userTransfers[i].govt_approved = true;\r\n                land.previous_owners.push(land.current_owner);\r\n                _detachLandFromAddress(landId, land.current_owner);\r\n                land.current_owner = userTransfers[i].new_owner;\r\n                userLandIds[userTransfers[i].new_owner].push(landId);\r\n                emit LandOwnershipTransferred(\r\n                    landId,\r\n                    lands[landId].previous_owners,\r\n                    currentOwner\r\n                );\r\n                userTransfers[i] = userTransfers[userTransfers.length - 1];\r\n                userTransfers.pop();\r\n\r\n                return true;\r\n            }\r\n        }\r\n        return false;\r\n    }\r\n\r\n    function getLandOwners(\r\n        uint256 landId\r\n    )\r\n        public\r\n        view\r\n        returns (address currentOwner, address[] memory previousOwners)\r\n    {\r\n        currentOwner = lands[landId].current_owner;\r\n        previousOwners = lands[landId].previous_owners;\r\n    }\r\n\r\n    function getOwnedLands() public view returns (Land[] memory) {\r\n        uint256 landCount = userLandIds[msg.sender].length;\r\n        uint256 ownedCount = 0;\r\n        for (uint256 i = 0; i < landCount; i++) {\r\n            uint256 landId = userLandIds[msg.sender][i];\r\n            if (msg.sender == lands[landId].current_owner) {\r\n                ownedCount++;\r\n            }\r\n        }\r\n        Land[] memory ownedLands = new Land[](ownedCount);\r\n        uint256 index = 0;\r\n        for (uint256 i = 0; i < landCount; i++) {\r\n            uint256 landId = userLandIds[msg.sender][i];\r\n            if (msg.sender == lands[landId].current_owner) {\r\n                ownedLands[index] = getLand(landId);\r\n                index++;\r\n            }\r\n        }\r\n\r\n        return ownedLands;\r\n    }\r\n\r\n    function getAllLands() public view onlyAdmin returns (Land[] memory) {\r\n        Land[] memory result = new Land[](landIds.length);\r\n        for (uint256 i; i < landIds.length; i++) {\r\n            result[i] = getLand(landIds[i]);\r\n        }\r\n        return result;\r\n    }\r\n\r\n    function getTransferredLands()\r\n        public\r\n        view\r\n        returns (TransferRequestTrack[] memory)\r\n    {\r\n        TransferRequestTrack[] memory response = userTransferRequests[\r\n            msg.sender\r\n        ];\r\n\r\n        return response;\r\n    }\r\n\r\n    function getAddressTransferredLands(\r\n        address req\r\n    ) public view onlyAdmin returns (TransferRequestTrack[] memory) {\r\n        TransferRequestTrack[] memory response = userTransferRequests[req];\r\n\r\n        return response;\r\n    }\r\n\r\n    function _detachLandFromAddress(\r\n        uint256 landId,\r\n        address pastOwner\r\n    ) internal {\r\n        uint256 landCount = userLandIds[msg.sender].length;\r\n        for (uint256 i = 0; i < landCount; i++) {\r\n            if (userLandIds[pastOwner][i] == landId) {\r\n                userLandIds[pastOwner][i] = userLandIds[pastOwner][\r\n                    landCount - 1\r\n                ];\r\n                userLandIds[pastOwner].pop();\r\n            }\r\n        }\r\n    }\r\n}\r\n",
  "sourcePath": "C:\\web3.0\\contracts\\LandRegistrySystem.sol",
  "compiler": {
    "name": "solc",
    "version": "0.8.0+commit.c7dfd78e.Emscripten.clang"
  },
  "schemaVersion": "3.4.16",
  "updatedAt": "2024-05-10T14:27:27.259Z",
  "devdoc": {
    "kind": "dev",
    "methods": {},
    "version": 1
  },
  "userdoc": {
    "kind": "user",
    "methods": {},
    "version": 1
  }
}